:020000040800F2
:10000000D818002069030008694600086B460008FC
:100010006D4600086F4600087146000800000000A9
:10002000000000000000000000000000390200088D
:100030007346000800000000F102000855030008A4
:100040008303000883030008830300088303000878
:100050008303000883030008830300088303000868
:100060008303000883030008830300080740000897
:100070000D40000813400008194000081F40000808
:10008000254000082B400008830300088303000874
:100090008303000883030008830300088303000828
:1000A0008303000883030008830300088303000818
:1000B000351F00088303000883030008830300083A
:1000C00083030008830300088303000883030008F8
:1000D00083030008830300088303000883030008E8
:1000E00083030008830300088303000883030008D8
:1000F00083030008830300088303000831400008DD
:1001000083030008830300088303000883030008B7
:1001100083030008830300088303000883030008A7
:10012000374000083B4000084140000847400008B5
:100130004D40000883030008830300088303000880
:100140008303000883030008830300088303000877
:1001500053400008594000085F400008830300082E
:100160008303000883030008E14B0008DB4B000811
:10017000834B0008D54B0008830300088303000865
:100180008303000883030008830300088303000837
:100190008303000883030008830300088303000827
:1001A000830300088303000883030008DFF81CD0E2
:1001B00006F044FC06F058FF0021034806F0A8FFB3
:1001C00006F064FFFEE70000DC020020D8180020E3
:1001D00080F309887047EFF309807047684680F321
:1001E000098804480078C00714BF0220032080F368
:1001F00014887047108E0008DFF818C0EFF30583ED
:100200001B0618BF6047EFF31483DB0708BF604786
:1002100000DF7047BB710008DFF818C0EFF30583FB
:100220001B0618BF6047EFF31483DB0708BF604766
:1002300000DF704799730008EFF30980816911F8B6
:10024000021CE1BB90E80F1010B5E047BDE810407C
:10025000EFF3098C8CE80700214B93E806009142EC
:1002600008BF704741B91EF0100F16D11D4908682C
:1002700020F00100086010E01EF0100F06BF2CED0A
:10028000108A0120002081F825002CE9F00FC1F828
:1002900028C00CB407F082FB0CBC1A60D2F828C04E
:1002A000BCE8F00F92F8250000280EBF6FF0020E98
:1002B0006FF0120EBCEC108A8CF30988704710B5F1
:1002C000094A1268914209D8084C54F8214090E834
:1002D0000F10A047EFF3098C8CE80F0010BD000051
:1002E000FC02002034EF00E0B86A0008B86A000899
:1002F00010B507F017FABDE81040154B93E806005B
:10030000914208BF7047EFF3098C1EF0100F06BF33
:100310002CED108A0120002081F825002CE9F00F37
:10032000C1F828C00CB407F039FB0CBC1A60D2F835
:1003300028C0BCE8F00F92F8250000280EBF6FF02F
:10034000020E6FF0120EBCEC108A8CF30988704715
:10035000FC02002010B507F0E9FBCCE710B506F071
:100360002BFF07F0E3FBC6E7064880470648004737
:10037000FEE7FEE7FEE7FEE7FEE7FEE7FEE7FEE755
:10038000FEE7FEE737470008AD01000828490843AB
:1003900028490860704730B50F23C27801780125DD
:1003A000FAB1244A126801F1E02102F4E062C2F5D8
:1003B000E062C2F30722C2F10404D3404278A240B3
:1003C00084781C401443220181F80024007800F056
:1003D0001F018D404009800000F1E020C0F800516D
:1003E00030BD01F01F0085404809800000F1E02089
:1003F000C0F8805130BD104A114001430D48001F24
:10040000016070470B4A121D0029116801D0014399
:1004100000E08143116070474FF0E0210428086933
:1004200003D020F004000861704740F00400FAE7B0
:100430000000FA050CED00E080FFFF1FF94801689D
:1004400041F001010160F74A0021083211600268A1
:10045000F54B1A400260031DF44A1A60F14BF44A4E
:1004600084331A60F14A103A1B1D1A60026822F4A4
:1004700080220260EB480C300160181D016070475B
:10048000E8490022891C0A70087070470246002063
:10049000510901290CD002290CD0E24974310968B4
:1004A00002F01F02012393400B4200D0012070474D
:1004B000DC49F4E7DB497031F1E718B500204FF46F
:1004C000A04400903120FFF7E1FF0099491C009102
:1004D000A14201D00028F5D03120FFF7D7FF002836
:1004E00000D0012018BDCF4A116821F0F80141EA7F
:1004F000C00010607047CF4908607047C9490022AA
:1005000070310A700A70012802D0042801D1052038
:1005100008707047C8490860704741EA82115A085C
:1005200010B5C64B029C03EB02421143014341EA62
:100530000460BC49091D086010BDBE4908667047CB
:10054000800140EA0160B74940EA027084310860E6
:100550007047B84988667047800140EA0160B14938
:1005600040EA0270883108607047B24908677047F6
:10057000B049C8647047AB4B08331A68084322F08F
:10058000EC62104318607047A64B08331A680843A2
:1005900022F07842104318607047A24A083211686E
:1005A00021F003010143116070479E480830006844
:1005B00000F00C0070479B4A0832116821F0F001EE
:1005C000014311607047974A0832116821F4E051E5
:1005D000014311607047934A0832116821F4604169
:1005E00041EAC0001060704770B58E4B083319683F
:1005F000934C11F00C0104D06610042903D0082993
:1006000003D004601BE0066019E0864A121D1168E1
:10061000C1F38055116801F03F0115B1B6FBF1F14E
:1006200001E0B4FBF1F114681268C4F3881461436B
:10063000C2F30142521C5200B1FBF2F10160196891
:100640000F2202EA11117F4A545C0168E1404160C7
:100650001C68072505EA9424145D21FA04F48460DB
:100660001B6805EA5333D25CD140C16070BDC0F352
:100670000121032908D16B4B08331968724A21F410
:10068000F81102400A431A60664970310A68C0F3E3
:100690000B0002430A60704767494439086070479D
:1006A00065494039086070476249C1F85C0170478C
:1006B0005C4A8C32116821F440110143116070478B
:1006C000584A8C32116821F440010143116070478F
:1006D000544A8C321168401E21F01F010143116001
:1006E0007047504A8C3211686FF0FF0321F4F851C3
:1006F00003EB00200843106070474A4A8C321168AF
:1007000021F440310143116070475049C1F8E001C4
:100710007047444A30320029116801D0014300E09B
:100720008143116070473F4A34320029116801D07B
:10073000014300E08143116070473A4A3832002992
:10074000116801D0014300E0814311607047354AD0
:1007500040320029116801D0014300E0814311605B
:100760007047304A44320029116801D0014300E04B
:100770008143116070472B4A10320029116801D063
:10078000014300E0814311607047264A143200297A
:10079000116801D0014300E0814311607047214A94
:1007A00018320029116801D0014300E08143116033
:1007B00070471C4A20320029116801D0014300E033
:1007C000814311607047174A24320029116801D013
:1007D000014300E0814311607047124A5032002902
:1007E000116801D0014300E08143116070470D4A58
:1007F00054320029116801D0014300E081431160A7
:100800007047084A58320029116801D0014300E0BE
:10081000814311607047034A60320029116817D084
:10082000014316E000380240FFFFF6EA10300024D2
:100830000030002000004742800E47420000FFFFCA
:100840000024F40000000020FFFCFF0F00104742CE
:10085000814311607047194A0029116801D0014392
:1008600000E081431160704714490C310128086889
:1008700003D020F008000860704740F00800FAE755
:100880000E4A573A0029117801D0014300E0814314
:100890001170704709481030016841F080710160A3
:1008A00070470146054A0020583A12680A4200D0B3
:1008B000012070470149563908707047643802407A
:1008C000774910B5884206D101210846FFF753FF4A
:1008D000002101205BE07349884206D101210220FA
:1008E000FFF749FF0021022051E06F49884206D1FD
:1008F00001210420FFF73FFF0021042047E06B495E
:10090000884206D101210820FFF735FF0021082089
:100910003DE06749884206D101211020FFF72BFFF7
:100920000021102033E06349884206D101212020B4
:10093000FFF721FF0021202029E05F49884206D1EE
:1009400001214020FFF717FF002140201FE05B49F5
:10095000884206D101218020FFF70DFF0021802071
:1009600015E05749884202D1012184150AE0554912
:10097000884202D10121441504E0534988420AD13A
:10098000012104152046FFF7F6FE00212046BDE8B0
:100990001040FFF7F0BE10BDF0B5002201274FF068
:1009A000030C0B6807FA02F52B40AB422CD106680A
:1009B00053000CFA03F4A64306600E79D0F800E069
:1009C0009E4046EA0E0606600E79012E01D0022EE8
:1009D00012D18668A64386604E79D0F808E09E4022
:1009E00046EA0E0686604668AE43466045688E79E4
:1009F0009640B6B235434560C568A543C560CC791D
:100A00009C40C3681C43C460521C102AC9D3F0BD6B
:100A10004FF6FF7101600021017141718171C17157
:100A2000704708B541F480320092C261C1610099FB
:100A3000C161C169C069009008BD02460020126909
:100A40000A4200D001207047006980B27047024618
:100A5000002052690A4200D001207047406980B2EC
:100A6000704701837047418370470AB10183704723
:100A7000418370474161704742694A404261704713
:100A80004B07DB0E9A40C90810B500EB8100016AE4
:100A90000F249C40A1430162016A1143016210BD11
:100AA000000002400004024000080240000C024026
:100AB000001002400014024000180240001C0240D6
:100AC0000020024000240240002802403549002056
:100AD0000860091D0860091D0860091D086031498A
:100AE000314814310860704730B52E4A8379016867
:100AF00053B313688B431360111D0B680468A34341
:100B00000B60017911440B68046823430B60254B8B
:100B1000083319680468A14319601C1D2168056821
:100B2000A94321604179102905D011440A68006861
:100B300002430A6030BD19680268114319602168D8
:100B400000680143216030BD0079104402688A4387
:100B5000026030BD0021016001710C22427181717F
:100B60007047104910310A6802430A607047014615
:100B70000C4A0020143212680A4200D0012070474B
:100B800008491431086070470146064A00201432B3
:100B900012680A4200D001207047024914310860EF
:100BA00070470000003C0140FFFF7F00D24910B5B4
:100BB000884202D101214C050AE0D049884202D185
:100BC00001218C0504E0CE4988420AD10121CC05DF
:100BD0002046FFF7EEFD2046BDE810400021FFF75C
:100BE000E8BD10BD7FB5044680880D4620F03F0665
:100BF0006846FFF7F9FCC3490298B0FBF1F189B2EE
:100C00000E43A680228822F001022280BE4B2A6871
:100C10009A421BD85200B0FBF2F080B2042800D2F6
:100C20000420491C2184A083208840F001002080FA
:100C300020884FF6F5310840A9886A89114301439D
:100C40002180A8892989084320817FBDEB88A3F5ED
:100C50003F46FF3E0BD002EBC20303EB0212B0FB98
:100C6000F2F080B240F48040020506D007E002EBCB
:100C70004202B0FBF2F080B2F6E740F001004FF420
:100C8000967251434FF47A72B1FBF2F140F4004096
:100C9000C7E741F288310160002181804BF6FF7285
:100CA000C280018141814FF48041818170470029D8
:100CB000018802D041F0010101E021F00101018031
:100CC00070470029818C02D021F0100101E041F031
:100CD000100181847047828C01F00F0122F00F0215
:100CE0001143818470470029018802D041F480714A
:100CF00001E021F48071018070470029018802D051
:100D000041F4007101E021F400710180704712B1DB
:100D100041F0010101E001F0FE010182704700296C
:100D2000018802D041F4806101E021F480610180FA
:100D30007047828901F0FE0122F0FE021143818199
:100D400070470029818902D041F0010101E021F0C2
:100D50000101818170470029018802D041F04001E2
:100D600001E021F04001018070470029018802D094
:100D700041F4004101E0C1F30E01018070470029F8
:100D8000018803D021F080010180704741F080018B
:100D9000FAE7B1F5804F818B02D021F4804101E068
:100DA00041F4804181837047B1F5006F018803D021
:100DB00021F400610180704741F40061FAE7B1F568
:100DC000005F018803D021F400510180704741F495
:100DD0000051FAE70029018802D041F0100101E03A
:100DE00021F010010180704701827047008AC0B273
:100DF00070470029018802D041F4805101E021F4BC
:100E0000805101807047B1F5006F018803D021F453
:100E100000610180704741F40061FAE70029018810
:100E200002D041F0200101E021F020010180704753
:100E3000008B000A70470029818802D041F40061CC
:100E400001E021F40061818070470029818802D08F
:100E500041F4805101E021F480518180704708B550
:100E600008440090008808BD002A828801D00A4307
:100E700000E08A4382807047034600209A8A1B8BD9
:100E800042EA034222F07F42914300D101207047A1
:100E9000818A008B41EA004121F07F4070470CB508
:100EA0000246002000920A0F21F07F41019202D0F9
:100EB000009A143202E0009A090C1832009212686B
:100EC0000A4200D001200CBDC9438182704710B591
:100ED000034600209A884FF4E06404EA11449B8A98
:100EE000224021F07F410B4202D0002A00D0012095
:100EF00010BDC94381827047005400400058004033
:100F0000005C004040420F00A0860100C14910B5BE
:100F1000884202D10121841424E0BF49884202D1D1
:100F20000121041404E0BD4988420AD10121C413FF
:100F30002046FFF73EFC2046BDE810400021FFF7A9
:100F400038BCB749884202D1012144140AE0B549AE
:100F5000884202D101210C0504E0B34988420AD13C
:100F600001214C052046FFF72EFC2046BDE810402D
:100F70000021FFF728BC10BD30B502884C8802F470
:100F800041530A88CD8822438C882C4322430C8904
:100F900022434C8922438C892243CC8922431A4321
:100FA0000280828B22F400628283098A018230BD32
:100FB000F0B502220023858B01244FF24006354014
:100FC00085830284868B8D68022D3DD08A8802B18C
:100FD0000224964A13681B0203D5136823F4000306
:100FE0001360924A7C3213681268C3F388138F4FE0
:100FF000C2F302723F1F3D683F6805F03F057F0264
:1010000001D58B4F00E08B4FB7FBF5F55D43B5FB8A
:10101000F2F2CB88B3F5007F2BD06301B2FBF3F281
:1010200002EB82028B685200B2FBF3F2521D92B2C5
:101030000A23B2FBF3F202F00103D21A4FF6FF7457
:10104000C2F34F0204EA0323941EFE2C01D30222B2
:101050000023CC881A43144304840A884B881A431B
:101060008B8889890B431A43324342F400618183A0
:10107000F0BD120AD4E70021018041808180C18047
:10108000018141818181C181072101827047002155
:10109000018041808180C18002228260818170470D
:1010A0000029018802D041F0400101E021F0400117
:1010B000018070470029818B02D041F4806101E0FA
:1010C00021F4806181837047028822F400620280EB
:1010D00002880A4302807047B1F5804F018803D02F
:1010E00021F480410180704741F48041FAE7A1F585
:1010F0007E420188FF3A02D041F4807101E021F480
:101100008071018070470029818802D041F004017C
:1011100001E021F00401818070470029818802D01C
:1011200041F0100101E021F010018180704730B5DD
:10113000828B00234FF240042240828302220284E9
:10114000848B0A884FF48075B2F5007F00D002B915
:101150002B464A888D8889892A4319430A432243AA
:1011600042F40061818330BD80897047818170477E
:101170000029018802D041F4005101E021F400511E
:1011800001807047018841F4805101807047012936
:1011900001D0008B7047808A7047008A7047002A10
:1011A000828801D00A4300E08A438280704709099F
:1011B00001238B40002A828899B201D00A4300E0C3
:1011C0008A43828070470246002012890A4200D07A
:1011D00001207047C9430181704730B501F00F030A
:1011E0000125024605FA03F40020A3B2090905FA15
:1011F00001F49188A4B2128921401A4202D0002938
:1012000000D0012030BD01F00F0201219140C943FF
:10121000018170470030014000380040003C004030
:1012200000340140005001400054014008380240A1
:1012300000127A000024F4002DE9F043016821F047
:10124000010101600021016041608160C1600161B4
:1012500021214161B849B84A3D251039904202D157
:101260008D60BDE8F083B44A4FF474661832904242
:1012700001D18E60F5E7B04A4FF4741730329042D6
:1012800001D18F60EDE7AC4A4FF0746C4832904268
:1012900002D1C1F808C0E4E7A74BA84A60339842DE
:1012A00001D1CA60DDE7A44CA54B7834A04201D13E
:1012B000CB60D6E7DFF88082A24C08F19008404569
:1012C00001D1CC60CDE7DFF870824FF03D5908F1D5
:1012D000A808404502D1C1F80C90C2E79A49DFF84E
:1012E00068820839404501D10D60BAE7964D18353E
:1012F000A84201D10E60B4E7934D3035A84201D128
:101300000F60AEE7904D4835A84202D1C1F800C049
:10131000A7E78D4D8C496035091FA84201D10A60AD
:101320009FE7894A7832904201D10B6099E7864A5B
:101330009032904201D10C6093E7834AA8329042E8
:101340008FD1C1F800908CE730B503687F4ACC6834
:1013500013400A682243D1E905452C432243CC6956
:1013600022430C6A22434C6A22438C6A22434C6B10
:1013700022438C6B22431A430260426922F0070326
:10138000D1E90B2422431A4342610A6942604A6848
:1013900082608968C16030BD002101604160816068
:1013A000C160016141618161C1610162416281622B
:1013B000C16201634163816370470029016802D003
:1013C00041F0010101E021F00101016070470029B5
:1013D000016802D041F4004101E021F400410160C4
:1013E00070470029016802D041F0200101E021F09E
:1013F00020010160704741607047406880B27047CB
:10140000002A026802D042F4002201E022F4002205
:101410000260016170470029016802D041F4802117
:1014200001E021F48021016070470AB10161704739
:10143000C1607047014600200968090300D50120FA
:101440007047014600200968C90700D00120704795
:10145000406900F03800704702463B4B00209A423A
:1014600002D2354A103A01E0374A103A8B0001D5D2
:10147000526800E01268364B1A400A4200D0012040
:101480007047314A904202D22B48103801E02E4872
:1014900010382F4A8B0001EA020101D5C160704764
:1014A000816070470B0607D5436912B143F0800392
:1014B00001E023F080034361802908D0002A0268FC
:1014C00001F01E0101D00A4300E08A430260704728
:1014D00030B51D4A0024904202D2174A103A01E06A
:1014E000194A103A1B4B194205D01E2303EAD12595
:1014F00003682B4002E0406900F08003880001D5BA
:10150000506800E01068124A1040084201D003B150
:101510000124204630BD0C4A904202D206481038C1
:1015200001E0094810380A4A8B0001EA020101D59E
:10153000C160704781607047106002403D0000202C
:10154000400F002000003D20106402403F801CF04E
:101550007D0F7D0F3C0F3C0FFE4910B5884206D130
:1015600001210846FFF72FF9002101205BE0B0F1CF
:10157000804F09D0F84988420DD101210220FFF7A0
:1015800018F90021022070E001210846FFF711F947
:101590000021012069E0F149884206D1012104209F
:1015A000FFF707F9002104205FE0ED49884206D1EA
:1015B00001210820FFF7FDF80021082055E0E94946
:1015C000884206D101211020FFF7F3F800211020F6
:1015D0004BE0E549884206D101212020FFF7E9F8D8
:1015E0000021202041E0E149884206D1012102206A
:1015F000FFF7E9F80021022015E0DD49884202D119
:1016000001210C040AE0DB49884202D101214C048B
:1016100004E0D94988420AD101218C042046FFF711
:10162000D2F800212046BDE81040FFF7CCB8D349DE
:10163000884206D101214020FFF7BBF8002140205D
:1016400013E0CF49884206D101218020FFF7B1F88D
:101650000021802009E0CB4988420AD1841501216C
:101660002046FFF7A6F800212046BDE81040FFF70E
:10167000A0B810BD30B50288B64CBC4DA0420DD00C
:10168000A8420BD0B0F1804F08D0B34B984205D0A0
:10169000B24B984202D0B24B984203D122F0700371
:1016A0004A881A43AF4B984206D0AF4B984203D0BA
:1016B00022F440730A891A4302804A68C2620A8887
:1016C0000285A04201D0A84201D1897A0186012178
:1016D000818230BD4FF0FF314160002101800181E6
:1016E000418081727047018582827047028822F0B2
:1016F00070020A430280704741627047C1627047BE
:10170000406A7047008D70470029018802D041F07F
:10171000020101E021F002010180704700290188E7
:1017200002D041F0040101E021F004010180704782
:101730000029018802D041F0800101E021F0800100
:1017400001807047028822F00802028002880A4362
:1017500002807047028822F44072028002880A43A5
:10176000028070470029018802D041F0010101E0A8
:1017700021F001010180704730B5028C22F0010296
:101780000284028C8388048B22F0020224F0730509
:101790000C882C438D8915434A882A436D4DA842F5
:1017A00002D0724DA8420DD122F00805CA8923F457
:1017B00040732A4322F004058A882A430D8A1D4378
:1017C0004B8A2B438380048389684163028430BD44
:1017D00070B5028C22F010020284028C8388048B84
:1017E0000D8824F4E6464FF6FF7404EA05253543D8
:1017F0008E8922F0200204EA061616434A8804EA7B
:1018000002123243534EB04202D0584EB04215D16C
:1018100022F08006CA8923F4406304EA02123243AC
:1018200022F040068A8804EA021232430E8A04EA51
:1018300086061E434B8A04EA830333438380058371
:1018400089688163028470BD70B5028C22F4807255
:101850000284028C8388848B0D8824F073042543D2
:101860008E894FF6FF7422F4007204EA06261643AE
:101870004A8804EA02223243364EB04202D03B4E3E
:10188000B04215D122F40066CA8923F4405304EA19
:101890000222324322F480668A8804EA022232431A
:1018A0000E8A04EA06161E434B8A04EA03133343E6
:1018B000838085838968C163028470BD70B5028CA2
:1018C00022F480520284058C8288838B0C8823F456
:1018D000E6464FF6FF7303EA0424344325F400562A
:1018E0008D8903EA053535434E8803EA06362E43D3
:1018F000184DA84202D01D4DA84205D122F48045C2
:101900000A8A03EA82122A438280848389680164F6
:10191000068470BD002101804180818081608181C9
:10192000C18101824182704730B50124058C00F1EC
:1019300018038C40A543058431B308292CD0091F16
:10194000C1F34E001844016848F6FF731940016066
:1019500001681AE000000140000400400008004057
:10196000000C004000100040001400400004014042
:101970000040014000440140004801400018004080
:10198000001C00400020004006E04FF6FF7303EA11
:1019900002221143016030BD03EB510001684FF694
:1019A0008F73194001600168F3E7416370478163F9
:1019B0007047C163704701647047028B22F0700268
:1019C0000A4302837047028B4FF6FF7322F4E04212
:1019D00003EA0121114301837047828B22F07002D8
:1019E0000A4382837047828B4FF6FF7322F4E042F2
:1019F00003EA0121114381837047028B22F0080220
:101A00000A4302837047028B4FF6FF7322F4006291
:101A100003EA0121114301837047828B22F00802FF
:101A20000A4382837047828B4FF6FF7322F4006271
:101A300003EA0121114381837047028B22F00402E3
:101A40000A4302837047028B4FF6FF7322F48062D1
:101A500003EA0121114301837047828B22F00402C3
:101A60000A4382837047828B4FF6FF7322F48062B1
:101A700003EA0121114381837047028B22F0800227
:101A80000A4302837047028B4FF6FF73C2F30E02C4
:101A900003EA0121114301837047828B22F0800207
:101AA0000A4382837047828B4FF6FF73C2F30E02A4
:101AB00003EA0121114381837047028C22F0020264
:101AC0000A4302847047028C22F008020A4302840F
:101AD0007047028C4FF6FF7322F0200203EA0111D7
:101AE000114301847047028C4FF6FF7322F080028D
:101AF00003EA0111114301847047028C4FF6FF7312
:101B000022F4007203EA0121114301847047028C20
:101B10004FF6FF7322F4006203EA012111430184AE
:101B20007047028C4FF6FF7322F4005203EA013132
:101B300011430184704710B50123048C8B409C43F2
:101B40000484038C8A401343038410BD10B504231E
:101B5000048C8B409C430484038C8A40134303848D
:101B600010BD828B22F440628283828B4FF6FF731A
:101B700003EA01210A4382837047828B22F00C0220
:101B80008283828B0A4382837047028B22F44062F5
:101B90000283028B4FF6FF7303EA01210A4302839B
:101BA0007047F0B5048C24F010040484078B068C75
:101BB0004FF6FF7404EA011527F4734704EA033172
:101BC000394304EA02220A4326F0A001294341F0E6
:101BD000100102830184F0BD028B22F00C0202830B
:101BE000028B0A43028370472DE9F0410C460E88B0
:101BF0004988A288238905460EB3042E26D0082ED4
:101C00002E8C4FF6FF7028D026F480562E84AF8B92
:101C10002E8C00EA022200EA013127F473473A438E
:101C200000EA0330104326F420420A4342F4805174
:101C3000A8832984E1882846BDE8F04191E700F0B7
:101C400062F9E1882846BDE8F041C5E7FFF7A9FF42
:101C5000E1882846BDE8F04197E726F480762E8497
:101C6000AF8B2E8C00EA012100EA0310104327F00D
:101C7000F307384326F420620A4342F48071A883B4
:101C80002984E1882846BDE8F04176E700210180FB
:101C9000418001228280C180018170472DE9F0419D
:101CA0000C46002649880746012501B90226A2886C
:101CB000012A00D10225208823890028384610D027
:101CC000FFF76FFFE1883846FFF75FFF23892A4659
:101CD0003146384600F017F9E1883846BDE8F04152
:101CE0007AE700F010F9E1883846FFF775FF23899D
:101CF0002A4631463846FFF754FFE1883846BDE8AA
:101D0000F04142E7406B7047806B7047C06B704793
:101D1000006C704710B50A884B88CC881A438B88B2
:101D200023431A430B891A434B8989891A430A436F
:101D3000A0F8442010BD0021018041808180C18035
:101D40000181418181817047002930F8441F02D010
:101D500041F4004101E0C1F30E0101807047002908
:101D6000818802D041F0040101E021F0040181806A
:101D700070470029818802D041F0010101E021F083
:101D8000010181807047002A828901D00A4300E066
:101D90008A43828170478182704702460020128AFE
:101DA0000A4200D001207047C943018270470246B1
:101DB0000020138A92890B4202EA010202D0002A13
:101DC00000D001207047C943018270471143A0F839
:101DD00048107047002A828901D00A4300E08A43F4
:101DE000828170470029818802D041F0080101E01A
:101DF00021F0080181807047018921F007010181EC
:101E00007047028922F070020A430281704700B5D0
:101E10000346FFF7F6FF188940F00700188100BD60
:101E200070B516460D46602904464FF00102314652
:101E30000AD000F068F829462046FFF7E2FF208923
:101E400040F00700208170BDFFF7ABFEF3E730B52F
:101E500004894FF6FF7505EA03231343E4B20B43ED
:101E60002343038130BD10B50446FFF7F0FF2089FE
:101E700040F07700208110BD10B50446FFF7E7FF62
:101E8000208940F48040208110BD828822F07002B9
:101E9000828082880A4382807047028922F007028A
:101EA000028102890A4302817047028922F080027E
:101EB000028102890A430281704770B50589048B4B
:101EC000068C25F007050D434FF6FC410C4040F20F
:101ED00001110C434FF6FF7101EA031126F02206AF
:101EE0001143314305810483018470BD0029818839
:101EF00002D041F0800101E021F080018180704733
:101F0000A0F85010704770B5048C24F001040484CC
:101F1000058B048C4FF6FF7606EA0313134325F076
:101F2000F3052B4324F00A020A4342F00101038324
:101F3000018470BD70B54FF080414FF6FE7008828D
:101F40006F484168491C4160816811B18168491E30
:101F50008160AFF3008000246A4E18E006EB840530
:101F6000686890B1017B81B1826872B1521E826053
:101F700069680AD1486909698847686801688160A9
:101F80006868416809B900210173641CE4B23078C3
:101F9000A042E3D870BD30B58BB04FF080456946A4
:101FA000284602F0DBF99FED580B684602F019FA5B
:101FB000284602F06BFA40F2E730079000245448BC
:101FC000ADF82040ADF81A400168009A8DF8224023
:101FD000B1FBF2F04F4A5043B1FBF0F0401EADF8B8
:101FE000180006A92846FFF745FBA88940F0010024
:101FF000A8811C208DF8240001208DF827008DF881
:1020000025408DF8264009A8FEF7C5F9288840F03C
:10201000010028800BB030BD10B5FFF7BCFF384978
:102020000120087010BD36480078002805D04FF018
:102030008040018841F00101018070474FF08040ED
:10204000018821F00101018070472DE9F0472D4CF6
:102050000546DDF8209020781E461746884605285C
:1020600002D30020BDE8F087182004F0C7FF002845
:10207000F8D00560C0E901850773C0E904692178DB
:1020800004EB810148602178491C2170EAE71D4B6F
:1020900030B400211A7806E003EB810464688442BE
:1020A00003D0491CC9B28A42F6D88A4218D003EB41
:1020B00081004068EFF3108472B605E003EB810203
:1020C000491C9568C9B255601A78521E8A42F5DCDF
:1020D0001978491E197004B962B630BC04F00ABF01
:1020E00030BC7047002101737047012101737047B4
:1020F000016881607047416070470160704700006F
:1021000010000020240300200000000080842E41E5
:10211000D400002040420F001CB503210020CDE96F
:10212000000103464C0301222146194800F086F8BD
:1021300017481A3004801CBD1CB500210220CDE9CF
:1021400000010B460A460121124800F077F81CBD39
:1021500010480069C107104805D0017829B901214C
:10216000017008467047002101700020704709483F
:102170000069C107084803D00121017000207047A1
:1021800001780029FAD00021017001207047000079
:1021900000180240000002401C000020A34908442F
:1021A000C0F38F2070472DE9F04F9A46DDE909B85A
:1021B00089460346FFF7F2FFC5B200204FF0030E39
:1021C0000121814011EA090F28D0994E36F81540B7
:1021D0000C4326F81540DF6844000EFA04F6B743B6
:1021E0000BFA04FC47EA0C07DF601F6802FA04FCE4
:1021F000B74347EA0C071F60012A01D0022A0DD11C
:102200005F6889B28F430AFA00F189B20F435F60B9
:10221000996808FA04F4B14321439960401CC0B2A4
:102220001028CDD3BDE8F08F00B5FFF7B7FF01212F
:102230008140804802681143016000BDFCB516462C
:10224000DDE907C50C00074608D0FFF7EDFFCDE933
:1022500000C5324621463846FFF7A5FFFCBD2DE9F3
:10226000FC4F9946DDE90BB792460D00064622D099
:10227000FFF7DAFF002201214FF00F0C01FA02F004
:1022800028420DD0D00806EB8003186A5407E40EEC
:102290000CFA04F820EA080007FA04F42043186254
:1022A000521C102AEAD3CDE9009B5346022229464C
:1022B0003046FFF778FFBDE8FC8FF0B50E460546C7
:1022C000FFF76CFF00225A49C4B24FF0010C0327FC
:1022D0000CFA02F333420CD028684FEA420E07FA98
:1022E0000EFE40EA0E00286031F81400984321F8F1
:1022F0001400521CD2B2102AEAD3F0BDF0B500226D
:102300000125032605FA02F30B4205D004685700A5
:1023100006FA07F39C430460521CD2B2102AF1D390
:10232000F0BDF0B500220127032607FA02F33C4670
:102330000B4208D00568530006FA03FC25EA0C0599
:102340009C4025430560521CD2B2102AEDD3F0BD4B
:10235000F0B500220125032605FA02F30B4205D051
:102360000468570006FA07F31C430460521CD2B2FB
:10237000102AF1D3F0BDF0B5002201260324022774
:1023800006FA02F30B4209D00568530004FA03FC75
:1023900025EA0C0507FA03F31D430560521CD2B26F
:1023A000102AEDD3F0BDF0B500230127032507FA6D
:1023B00003F40C4209D0C6685C0005FA04FC26EA66
:1023C0000C0602FA04F42643C6605B1CDBB2102B39
:1023D000EDD3F0BD41F48032C261C161C261C16917
:1023E000C0697047002102E0491C89B240080128F9
:1023F000FAD80846704700B5FFF7D0FE01218140AA
:102400000C4802688A43026000BD00B5FFF7C6FEB3
:10241000074931F8100000BD00B5FFF7BFFE0449C1
:1024200031F81000C04380B200BD00000000FEBFC4
:102430003C030020303802407CB50425012438B12B
:10244000012812D0032802D1F748AFF300807CBDE9
:1024500001231A461902F548CDE90045FFF7FFFEB2
:1024600001231A465902F24804E00123F1481A46B2
:102470004FF4C071CDE90045FFF7F1FE7CBD1CB5FE
:102480000421012248B101280FD0022814D00328CA
:1024900002D1E948AFF300801CBDCDE90021012342
:1024A0001A464FF44061E5480CE0CDE900210123D4
:1024B0001A460321E24805E0CDE9002101231A462E
:1024C0003021DC48FFF7CBFE1CBD1CB50421DB4CE2
:1024D000012248B101280DD0022812D0032802D1D0
:1024E000D848AFF300801CBDCDE9002101231A4676
:1024F000C0210CE0CDE9002101231A464FF44071C0
:1025000005E0CDE9002101231A464FF41071204661
:10251000FFF7A5FE1CBD2DE9FF4715460446C94A35
:102520000026C948C94F4FF480484BF6FF799442C2
:102530000CD1026842F4001202600846FFF7C5FFA2
:102540003868A84200D93D6038681EE0BA4A944213
:102550000CD1026842F4800202600846FFF78FFF48
:102560007868A84200D97D6078680EE0AE4A94424F
:1025700016D1026842F4000202600846FFF75CFFD1
:10258000B868A84200D9BD60B868ADF80460ADF87D
:1025900008600090ADF80C80ADF80A60ADF80690C8
:1025A000208820F00100208069462046FEF71AFBB3
:1025B000208840F001002080BDE8FF8770B5044608
:1025C000008820F480602080208840F40070208003
:1025D0009E4D44F620602D1F9D4E286003E02A6822
:1025E000521E2A6008D031462046FEF745FC0028DE
:1025F000F5D0208AC0B270BD012070BD70B5044610
:10260000008840F480702080904D44F620662D1F95
:102610002E6003E02868401E28602AD0A08AC007E8
:10262000F8D01BB1208840F4806020805AB921F096
:10263000010020822E6003E02868401E286018D028
:10264000A08A8007F8D5012A10D141F0010020822C
:102650002E607F4E3E3E03E02868401E286008D072
:1026600031462046FEF708FC0028F5D0208B0020DC
:1026700070BD012070BD754A44F62061121F1160C3
:1026800003E01168491E11600BD0818A0906F8D554
:10269000818A4907F5D5018841F400710180002045
:1026A000704701207047694B44F620621B1F1A6077
:1026B000828A120603D41A680AB1521EF7E7018211
:1026C000704770B5164600230C4605461A46FFF7BC
:1026D00095FF31462846FFF7E6FF2846FFF7CBFF78
:1026E0000023012221462846FFF788FF2846BDE83F
:1026F000704063E770B50546008840F4806028802C
:10270000524C44F62060241F514E206003E02268A2
:10271000521E226008D031462846FEF7ADFB002845
:10272000F5D0288AC0B270BD012070BD2DE9F041FE
:102730001D4616460C46804601230022069FFFF7E1
:102740005DFF31464046FFF7AEFF4046FFF793FF7F
:1027500001231A4621464046FFF750FF00247E1E03
:102760000AE0B442404602D1FFF728FF01E0FFF73C
:10277000C1FF2855641CE4B2BC42F2D3BDE8F0812D
:1027800010B5012304461A46FFF738FF2046BDE87E
:10279000104013E72DE9F0411E46154601238046FF
:1027A0001A46FFF72BFF0024771E0AE0BC42404682
:1027B00002D1FFF703FF01E0FFF79CFF2855641CDF
:1027C000E4B2B442F2D3D9E770B51D4616460023F1
:1027D00004461A46FFF712FF31462046FFF763FF13
:1027E00029462046FFF75FFF2046BDE8704042E7DC
:1027F0002DE9F0411D461446002307461A46069E61
:10280000FFF7FCFE21463846FFF74DFF002405E0A8
:10281000295D3846FFF747FF641CE4B2B442F7D3A2
:102820003846BDE8F04126E7005C00400000024069
:1028300000080240001C0240005800400004024012
:1028400000140240005400404038024024000020A0
:102850004000030070B51546002304461A46FFF7F2
:10286000CDFE29462046FFF71EFF2046BDE87040FA
:1028700001E72DE9F0411D461646002307461A469A
:10288000FFF7BCFE002405E0315D3846FFF70BFF83
:10289000641CE4B2AC42F7D33846BDE8F041EAE646
:1028A00070B50024054601232246FFF7A7FE00B9B4
:1028B00001242846FFF7DFFE204670BD08B5BD485D
:1028C0000090BD4BBD4A0021BD4803F05BFABD49F5
:1028D0000220087008BDBB480078704700210170D5
:1028E00041708170C17001714171B64800787047C4
:1028F0001CB5B4490978012901D002201CBD022170
:102900008DF8001000218DF80110027811438DF828
:102910000110427841EA42018DF80110827841EAC3
:1029200082018DF80110C1788DF8021001798DF8BF
:10293000031040798DF8040005226946A04803F091
:1029400054FC01201CBD1CB50020009001909D4846
:10295000007801284FF0020007D18DF80000052211
:102960006946974803F041FC01201CBD002101701D
:1029700041708170C170017141718171C1710172C9
:1029800041728172C172017341738173C1730174A9
:1029900041748174C1748B48007870471CB5894AB2
:1029A0001278012A01D002201CBD8DF80000002001
:1029B0008DF801000A78034610438DF801004A782B
:1029C00040EA42028DF80120887842EA80028DF8C0
:1029D0000120C87842EAC0028DF80120087942EA55
:1029E00000128DF80120487942EA40128DF801204A
:1029F000887942EA80128DF80120C87942EAC01035
:102A00008DF801008DF802300A7A43EA02008DF851
:102A100002004A7A40EA42008DF802008A7A40EACF
:102A200082008DF80200CA7A40EAC2008DF80200E6
:102A30000A7B40EA02108DF802004A7B40EA42100D
:102A40008DF802008A7B40EA82108DF80200CA7B72
:102A500040EAC2108DF80200087C8DF80300487C23
:102A60008DF80400887C8DF80500C87C8DF8060080
:102A700007226946524803F0B8FB01201CBD1CB573
:102A80000021009101914F490978012901D00220CC
:102A90001CBD8DF8000007226946494803F0A5FBDC
:102AA00001201CBD0021017041708170C170017155
:102AB00041718171C171017241728172C172017380
:102AC00041734048007870470EB500213D4A00919F
:102AD000019102911278012A01D002200EBD01223B
:102AE0008DF800208DF8011002780A438DF801203E
:102AF000837842EA43028DF80120437842EA830258
:102B00008DF80120C37842EAC3028DF801200379D1
:102B100042EA03128DF80120837942EA43128DF8CC
:102B20000120437942EA83128DF80120C37942EAF9
:102B3000C3128DF801208DF80210017A8DF8031070
:102B4000417A8DF80410817A8DF80510C17A8DF8DC
:102B50000610017B8DF80710407B8DF808000922D4
:102B60006946174803F041FB01200EBD0EB5002059
:102B700000900190029013480078012801D00220B3
:102B80000EBD01208DF80000092269460C4803F0B3
:102B90002CFB01200EBD0A460A4910B5097801290F
:102BA00001D0022010BD0146054803F01EFB0120A4
:102BB00010BD0000B8020020740100203401002084
:102BC000D0030020D402002002468221C348FFF730
:102BD00078BD1CB5FFF720FAC04CC14A0021204641
:102BE000FFF799FC0223032282212046FFF7ECFD28
:102BF000052000F05CF90023032282212046FFF724
:102C0000E3FD022000F053F90221009101AB002204
:102C100082212046FFF78AFDBDF8040041BAA1F5E4
:102C20000062113A01D003201CBD0223032282213D
:102C30002046FFF7C9FD052000F039F900230322E3
:102C400082212046FFF7C0FD022000F030F9042069
:102C5000FFF7BAFF20F00103042282212046FFF78C
:102C6000B3FD0420FFF7B0FF20F00203042282210D
:102C70002046FFF7A9FD4923202282212046FFF7A5
:102C8000A3FD022000F013F9012321228221204616
:102C9000FFF79AFD1720FFF797FF40F01E0317225A
:102CA00082212046FFF790FD9A234122822120466F
:102CB000FFF78AFD01234A2282212046FFF784FD87
:102CC00001234B2282212046FFF77EFD00234B2269
:102CD00082212046FFF778FD0123562282212046DB
:102CE000FFF772FD0123582282212046FFF76CFD79
:102CF0000323402282212046FFF766FDFF230B229B
:102D000082212046FFF760FD022000F0D0F802206B
:102D10001CBD70B504464F20FFF756FF60F30F252A
:102D20005020FFF751FF60F30705A5F5B47528B2F1
:102D30000B2190FBF1F001B2002901DC002104E03D
:102D4000B1F5A07F01DB40F23F11A14201DD081B7C
:102D500000E0601A00B2042801DD88B270BD204690
:102D600070BD70B504464D20FFF72EFF60F30F25B0
:102D70004E20FFF729FF60F3070529B240F6B8306F
:102D8000814202DCA1F63C7101E0A1F6D861484223
:102D900000B20F2190FBF1F001B2EF2901DDEF212C
:102DA00002E0002900DA0021A14201DD081B00E059
:102DB000601A00B2042801DD88B270BD204670BDE3
:102DC00070B50446007960714020FFF7FDFE434E68
:102DD00000064FF001050DD4257101234B228221FD
:102DE0003046FFF7F1FC00234B2282213046FFF7EB
:102DF000EBFC5AE0A07930B1012811D0022818D09C
:102E0000032821D02AE02088FFF7ABFFC0F1EF00B4
:102E100020806088FFF77DFFA0F23F10404206E06F
:102E20002088FFF79EFF20806088FFF772FF608098
:102E300014E06088FFF795FF60802088FFF769FF46
:102E4000A0F23F10404208E02088FFF78AFFC0F15F
:102E5000EF0060802088FFF75CFF208001234B2279
:102E600082213046FFF7B0FC00234B2282213046FE
:102E7000FFF7AAFCA07900214FF49F7260B10128EE
:102E80000AD02088401E90420ED2608860B1EF28A0
:102E90000AD22171002070BD2088401EEE2803D286
:102EA000608808B19042F4D92571012070BD0D49A8
:102EB00008B50A680092EFF3058242B14FF0E021B5
:102EC000002809D00A69D203FAD5401EF8E70A683B
:102ED000009BD21A8242FAD308BD0000005C004079
:102EE000A0860100140000201CB528B1032802D1DF
:102EF000FE48AFF300801CBD05210320CDE9000191
:102F000000231A464FF4E041F948FFF7A8F91CBD29
:102F10007CB50525F74E032438B101280BD00328D2
:102F200002D1F548AFF300807CBD00231A464FF470
:102F3000607130460CE000231A464FF400613046C1
:102F4000CDE90045FFF78BF90023EC481A46C02174
:102F5000CDE90045FFF783F97CBD1CB50522E84C9F
:102F6000032138B101280BD0032802D1E548AFF383
:102F700000801CBDCDE9001200231A46642105E043
:102F8000CDE9001200231A464FF4E0412046FFF736
:102F900066F91CBD1CB50622032138B101280CD0EE
:102FA000032802D1D848AFF300801CBDCDE9001240
:102FB00000231A463821D54806E0CDE90012002347
:102FC0001A464FF4E051D248FFF749F91CBD7CB5D1
:102FD0000525CE4E032448B1012815D0022819D06A
:102FE000032802D1CB48AFF300807CBD00231A46F2
:102FF0004FF480613046CDE90045FFF730F90023FA
:103000001A460C21C24809E000231A464FF46041D9
:10301000304603E00023C0481A460D21CDE90045A3
:10302000FFF71DF97CBD1CB50522032138B101282D
:103030000CD0032802D1B948AFF300801CBDCDE904
:10304000001200231A46E021B54805E0CDE9001240
:1030500000231A463821AD48FFF701F91CBD2DE9C0
:10306000FF4F85B00446DDE912BA99461646684618
:10307000FEF701F8A948AB4F0025844208D1386813
:1030800040F4805038600698FFF7CDFFADF804504B
:10309000A048DFF890828442A8F104080AD1D8F849
:1030A000001041F48041C8F800100698FFF78FFF28
:1030B000ADF80450944884420AD1D8F8001041F485
:1030C0000041C8F800100698FFF764FFADF80450FF
:1030D0008C48844208D1386840F400503860069823
:1030E000FFF73BFFADF804508348844208D13868AD
:1030F00040F4801038600698FFF70AFFADF80450DE
:103100007A48844208D1386840F400103860069844
:10311000FFF7EAFEADF80450ADF80C90ADF80050A2
:103120004FF40070ADF80EA0ADF802B0ADF80A0093
:1031300046B10121012E08D00220022E08D0032E14
:103140000BD00EE0ADF8065004E0ADF8065006E0F6
:10315000ADF80600ADF8085003E0ADF80600ADF894
:103160000810208820F04000208069462046FDF7A6
:1031700003FF208840F04000208009B0BDE8F08FB8
:103180002DE9FC410446654800250F464FF4827640
:10319000844205D1CDE9006520230022FFF75FFFBF
:1031A0005C48844206D1CDE90065202300223946DF
:1031B000FFF755FF5448844206D1CDE9006520232E
:1031C00000223946FFF74BFF4E48844206D1CDE935
:1031D0000065202300223946FFF741FF464884421C
:1031E00006D1CDE90065202300223946FFF737FFDD
:1031F0003E48844206D1CDE90065202300223946AD
:10320000FFF72DFFBDE8FC812DE9FC410446434852
:103210000025174688464FF48276844204D1CDE9D2
:1032200000652023FFF71BFF3A48844206D1CDE911
:10323000006520233A464146FFF711FF3248844299
:1032400006D1CDE9006520233A464146FFF707FF46
:103250002C48844206D1CDE9006520233A464146F8
:10326000FFF7FDFE2448844206D1CDE90065202306
:103270003A464146FFF7F3FE1C488442C2D1CDE9ED
:10328000006520233A464146FFF7E9FEBAE72DE9FB
:10329000FC470446DDE90A6520481F4690468946FA
:1032A000844205D1CDE9006513463A46FFF7D7FEC3
:1032B0001848844206D1CDE9006543463A4649465E
:1032C000FFF7CDFE1048844206D1CDE900654346A4
:1032D0003A464946FFF7C3FE0A48844226D1CDE963
:1032E000006543463A4649461EE00000005401404E
:1032F000001802400014024000500140001C02402F
:103300000010024000340140003C00400004024034
:103310000008024000380040002002400030014018
:103320000000024044380240FFF799FE774884428B
:1033300006D1CDE9006543463A464946FFF78FFE80
:103340007348844206D1CDE9006543463A46494672
:10335000FFF785FEBDE8FC877FB50D00044620D051
:103360006846FDF741F96B48844208D06A488442B8
:1033700005D06648844202D06548844201D1039951
:1033800000E0029900200124421C04FA02F3B1FB80
:10339000F3F3AB4202D8C00004B070BDD0B208282D
:1033A000F2D33820F8E702880388C2F3C02223F062
:1033B000400303800129018808D021F400610180C5
:1033C000018841F0400101801046704741F40061DE
:1033D000F5E730B50488640614D50489A407FCD049
:1033E00004892406F9D400240AE00D5D858105894D
:1033F000AD07FCD005892D06F9D485891555641CC7
:103400009C42F2D330BD10B503885B0613D5038907
:103410009B07FCD003891B06F9D4002309E0CC5C90
:1034200084810489A407FCD004892406F9D4848902
:103430005B1C9342F3D310BD30B50488640613D5EA
:103440000489A407FCD004892406F9D4002409E0E7
:1034500082810589AD07FCD005892D06F9D48589BF
:103460000D55641C9C42F3D330BD30B5048864060E
:1034700016D50489A407FCD004892406F9D40024B5
:103480000CE031F8145085810589AD07FCD0058921
:103490002D06F9D4858922F81450641C9C42F0D37F
:1034A00030BD10B503885B0614D503899B07FCD09B
:1034B00003891B06F9D400230AE031F81340848104
:1034C0000489A407FCD004892406F9D484895B1CF0
:1034D0009342F2D310BD30B50488640614D5048934
:1034E000A407FCD004892406F9D400240AE08281D0
:1034F0000589AD07FCD005892D06F9D4858921F809
:103500001450641C9C42F2D330BD000000500140B6
:10351000005401400030014000340140028852064E
:1035200001D40020704702899207FCD0028912065C
:10353000F9D4818101898907FCD001890906F9D470
:103540008089C0B2704770B505464FF40051FE48FF
:10355000FDF789FAFD4C04212046FDF784FA29463F
:10356000FB48FFF7DBFF2046BDE870400421FDF774
:1035700078BA70B505464FF40051F348FDF771FA7B
:10358000F24C04212046FDF76EFA2946F048FFF779
:10359000C5FF2046BDE870400421FDF762BA2DE961
:1035A000F04107461C4615460E462A20FFF7CBFF82
:1035B000380AFFF7DEFFF8B2FFF7DBFF280AFFF754
:1035C000D8FFE8B2FFF7D5FF2B20FFF7BCFF300A8A
:1035D000FFF7CFFFF0B2FFF7CCFF200AFFF7C9FFDC
:1035E000E0B2BDE8F041C4E72DE9F0411D461446C4
:1035F0000E460746DDF81880FFF7D1FF2C20FFF7B5
:10360000A2FFE41BA81B401C641CD04F44430421B0
:103610003846FDF728FA4FF40051CB48FDF721FA60
:10362000CB4E01213046FFF7BEFE4FF48035AC4251
:1036300001D3681E00E0204682B24146304600F0C9
:1036400010FE304600F040FE0028FAD1AC420AD30A
:10365000641CA2B24146304600F003FE304600F042
:1036600033FE0028FAD104213846FDF7FAF9304636
:10367000BDE8F0410021FFF796BE08B580B200908A
:10368000B448002143880088401E82B20846FFF7F4
:10369000ABFF08BD01B5009801E0401E0090002876
:1036A000FBD108BD70B5A84D4FF480542146284683
:1036B000FDF7D9F944F620663046FFF7EBFF2146C7
:1036C0002846FDF7CEF93046FFF7E4FF0120FFF76B
:1036D0003AFF4CF25030FFF7DDFFCB20FFF733FF0E
:1036E0003920FFF746FF2C20FFF743FF0020FFF7AC
:1036F00040FF3420FFF73DFF0220FFF73AFFCF20C5
:10370000FFF721FF0020FFF734FFC120FFF731FF53
:103710003020FFF72EFFE820FFF715FF8520FFF789
:1037200028FF0020FFF725FF7820FFF722FFEA207F
:10373000FFF709FF0020FFF71CFF0020FFF719FF2C
:10374000ED20FFF700FF6420FFF713FF0320FFF7D2
:1037500010FF1220FFF70DFF8120FFF70AFFF7206F
:10376000FFF7F1FE2020FFF704FFC020FFF7EBFE7C
:103770002320FFF7FEFEC120FFF7E5FE1020FFF734
:10378000F8FEC520FFF7DFFE3E20FFF7F2FE2820FF
:10379000FFF7EFFEC720FFF7D6FE8620FFF7E9FE12
:1037A0003620FFF7D0FE4820FFF7E3FE3A20FFF770
:1037B000CAFE5520FFF7DDFEB120FFF7C4FE002052
:1037C000FFF7D7FE1820FFF7D4FEB620FFF7BBFEA9
:1037D0000820FFF7CEFE8220FFF7CBFE2720FFF761
:1037E000C8FEF220FFF7AFFE0020FFF7C2FE2A203E
:1037F000FFF7A9FE0020FFF7BCFE0020FFF7B9FE8F
:103800000020FFF7B6FEEF20FFF7B3FE2B20FFF7F7
:103810009AFE0020FFF7ADFE0020FFF7AAFE012070
:10382000FFF7A7FE3F20FFF7A4FE2620FFF78BFE41
:103830000120FFF79EFEE020FFF785FE0F20FFF737
:1038400098FE3120FFF795FE2B20FFF792FE0C200B
:10385000FFF78FFE0E20FFF78CFE0820FFF789FE92
:103860004E20FFF786FEF120FFF783FE3720FFF79B
:1038700080FE0720FFF77DFE1020FFF77AFE032071
:10388000FFF777FE0E20FFF774FE0920FFF771FEA9
:103890000020FFF76EFEE120FFF755FE0020FFF746
:1038A00068FE0E20FFF765FE1420FFF762FE03207E
:1038B000FFF75FFE1120FFF75CFE0720FFF759FEC0
:1038C0003120FFF756FEC120FFF753FE4820FFF7D7
:1038D00050FE0820FFF74DFE0F20FFF74AFE0C2098
:1038E000FFF747FE3120FFF744FE3620FFF741FE89
:1038F0000F20FFF73EFE1120FFF725FE1648FFF7C9
:10390000C9FE2920FFF71FFEBDE870402C201AE6F3
:103910002DE9FC41012500240B4E23462A4669036C
:103920003046CDE90045FEF789FC084F002301220F
:1039300004213846CDE90045FEF780FC0023012232
:10394000110330460AE00000000C0240000802406B
:10395000005001403400002040420F00CDE90054E7
:10396000FEF76CFC04213846FDF77BF8FE4E002183
:103970003046FFF705FC304600F09BFBFFF792FE58
:10398000FA48F02144800480001D01804FF4A071AA
:1039900041800571BDE8FC414FF6FF706DE62920BE
:1039A000D1E52820CFE510B514460B460246FFF7B7
:1039B000F6FD2C20FFF7C7FDC4F30720FFF7D9FD64
:1039C000E0B2BDE81040D4E52DE9F04104463620D0
:1039D000FFF7B9FDE54DF0272D1D4FF4A07634B16A
:1039E000012C06D0022C0BD0032C0BD00DE058205C
:1039F00000E08820FFF7BDFD2F806E80012007E0EA
:103A0000282000E0E820FFF7B4FD2E806F80002022
:103A10002871BDE8F0812DE9F84F1D469146DDE99A
:103A20000AA3D24A108051802C782044141D248887
:103A3000A04204D96878084450800020108098B2D1
:103A400000906B7890465188B8F800005A1893B2ED
:103A50002A78024492B2FFF7C7FD00261CE0A9F1C4
:103A6000200111FB00606A68002432F810700FE03A
:103A700007FA04F000040AD5B8F80210B8F80000FC
:103A80003144204489B280B25246FFF78CFF641C57
:103A90002878A042ECD8761C6878B042DFD8297824
:103AA000B8F800201144A8F80010BDE8F88F2DE9FF
:103AB000FC47AE4DDDE90A9828801F4614460646AD
:103AC00069800BE00A2A0ED00D2A15D0CDE90098A6
:103AD0003B4669882888641CFFF79DFF2278002AEE
:103AE000F0D1BDE8FC8768887978401C084468807C
:103AF00060780D2802D02E80641CEFE7002028801B
:103B0000641CF9E730B54D7800241D8002E00B7885
:103B100023449CB210F8013B002BF8D1148030BD37
:103B20002DE9FC5F9046914A0C46121D054611880E
:103B30001F46481EA94200D885B2414501D81FFA48
:103B400080F85188481EA14200D884B2B94200D8FA
:103B500087B2454502D9284645468046BC4202D92F
:103B600020463C460746A8EB050000B25FEA000A83
:103B7000A7EB04000FFA80F908D0B9F1000F05D0C7
:103B80004FF0FF3045450CD201210BE00C983B462D
:103B900080B20090424621462846FFF725FDBDE849
:103BA000FC9F01460191BC4200D20120009050468A
:103BB000CA4501DCC9F1000000EBD070401006B22C
:103BC000CAF1000B214628460C9AFFF7ECFE45454A
:103BD00001D1BC42E3D030465E4505DDA0EB0901D2
:103BE0000EB2019929448DB24845EBDA06EB0A0082
:103BF00006B20098204484B2E4E72DE9F8431D465C
:103C0000089C16460F4680460B460094FFF788FF37
:103C100042462B46394610460094FFF781FF324654
:103C20002B46394610460094FFF77AFF2B46324662
:103C3000194640460094FFF773FFBDE8F88338B596
:103C40009042049D02D9044610462246994202D968
:103C50000C4619462346ACB20094FFF7C5FCBDE8FC
:103C6000384004214248FCF7FCBE2DE9FF4F0746CF
:103C7000C2F1010014460FFA80F8C2EBC4304000D4
:103C80000FFA80F983B00E46081981B24FF0010A8D
:103C90000025B8B2069AFFF786FE301B81B2B8B293
:103CA000069AFFF780FE3819B1B280B2069AFFF784
:103CB0007AFEB1B2381B56E0B8F1000F09DB09F10A
:103CC00002000FFA80F9641E08EB090024B20FFA13
:103CD00080F80AF102000FFA80FA6D1C08EB0A0066
:103CE0002DB20FFA80F87819019006EB040B1FFA39
:103CF0008BF180B2069AFFF756FE781B00901FFAF0
:103D00008BF180B2069AFFF74EFE0198A6EB040BEA
:103D10001FFA8BF180B2069AFFF745FE00981FFA52
:103D20008BF180B2069AFFF73EFE3819019006EB40
:103D3000050B1FFA8BF180B2069AFFF734FE381B91
:103D400000901FFA8BF180B2069AFFF72CFE0198C3
:103D5000A6EB050B1FFA8BF180B2069AFFF723FE44
:103D60001FFA8BF1009805E0005001403000002060
:103D70000008024080B2069AFFF715FEA5429BDBC1
:103D800007B0BDE8F08F2DE9FE4F0746C2F10100F4
:103D900014460FFA80F8C2EBC43040000FFA80FAE4
:103DA0000E46081981B299464FF0010B0025B8B2B2
:103DB0001A46FFF7F8FD301B81B2B8B24A46FFF74A
:103DC000F2FD38190290B1B280B24A46FFF7EBFD1E
:103DD000381B0190B1B280B24A46FFF7E4FD029869
:103DE000B3B2CDF8009082B2B1B240E0B8F1000FAA
:103DF00009DB0AF102000FFA80FA641E08EB0A00E0
:103E000024B20FFA80F80BF102000FFA80FB6D1C50
:103E100008EB0B002DB20FFA80F8781982B20290ED
:103E2000781BCDE9009031198BB289B280B2FFF7CF
:103E300077FE0198311B82B202988BB2CDF80090C8
:103E400089B280B2FFF76CFE381B82B2029038193B
:103E5000CDE9009071198BB289B280B2FFF760FE94
:103E6000711B02988BB2CDF8009082B289B2019892
:103E700080B2FFF755FEA542B8DBBDE8FE8F00001B
:103E8000784A10B51823904202D2774A774C03E063
:103E9000744A744C083A64422044B0FBF3F004289E
:103EA00001D3001F121D724B01F03D01185C8140CF
:103EB000116010BD3D21E3E76A491822884203D210
:103EC00069496A4B083903E06649664B10395B4221
:103ED0001844B0FBF2F0042801D3001F091D096843
:103EE000634A105CC14001F03D00704738B504469C
:103EF0003D21FFF7C5FF5E4A5A4B1820121D0121D4
:103F00009C4207D2594B8DF801102344B3FBF0F0CB
:103F1000125C08E0534B8DF801105B422344B3FB65
:103F2000F0F00244127A8DF800208DF803108DF81D
:103F300002006846FCF72FFA206840F01E0020605F
:103F4000606940F08000606138BD10B504463D21D5
:103F5000FFF796FF4648434A1821001D944201D2BC
:103F6000424A01E03F4A52422244B2FBF1F140563C
:103F7000012100F01F0291404009800000F1E02083
:103F8000C0F88011206820F01E002060606900F0F9
:103F90008000606110BD7047704770477047704780
:103FA00070B505463D21FFF787FF84B23D212846C5
:103FB000FFF766FFA00605D52868C00602D528468B
:103FC000FFF7E9FFE00605D52868000702D5284677
:103FD000FFF7E2FF200705D52868400702D52846ED
:103FE000FFF7DBFF600705D52868800702D5284664
:103FF000FFF7D4FFE00705D06869000602D5284620
:10400000FFF7CDFF70BD18480830C9E716482030CB
:10401000C6E715483830C3E713485030C0E71248A8
:104020006830BDE710488030BAE70F489830B7E7EE
:104030000D48B030B4E70B48B2E70A481830AFE794
:1040400008483030ACE707484830A9E705486030F9
:10405000A6E704487830A3E702489030A0E701487B
:10406000A8309DE71064024008600240F09FFDBF49
:1040700090800008AF4A0146904200D1AE48AF4A56
:10408000914201D1AC481830AD4A914201D1AA48C1
:104090003030AC4A914201D1A7484830AA4A9142F7
:1040A00001D1A5486030A94A914201D1A248783097
:1040B000704710B5FFF7DEFFA54AA6494368934253
:1040C0000B6802D343F4800301E043F400130B6058
:1040D000C0689042086802D340F4800001E040F4D8
:1040E000001008609C4900204861C861086248626D
:1040F0008862C86208634863886310BD2DE9F04197
:104100001F4614460D468046069EFFF7B3FF80E823
:10411000F0004046BDE8F041CBE710B5FFF7AAFF3D
:1041200004464068FDF788F8E068BDE81040FDF7F8
:1041300083B82DE9F0479A4617460D460646FFF725
:1041400099FF0446C068406818BB6068406800BBBF
:1041500055EA07001DD0DFF800824FF00009A4F8EF
:104160001490C8F82090C8F810A006F10C01C8F807
:104170001C90C8F804102168C8F80010402140467F
:104180004FF4806AC8F80C1035B18560C8F818A0E3
:1041900007E00020BDE8F08704F110018160C8F855
:1041A00018903D216068FFF76BFE6B496068FDF772
:1041B000CBF8A168C8F8001040464946C8F80C90F2
:1041C0001FB18760C8F818A004E004F110028260F3
:1041D000C8F818103D21E068FFF752FE5E49E0681C
:1041E000FDF7B2F8E068016841F001010160606824
:1041F000016841F001010160B08840F00300B08027
:104200000120C7E72DE9F04116460F460546FFF7A6
:1042100031FF04464068406810B10020BDE8F081DD
:104220004D48276105F10C01066141600021816163
:104230002268026040220162C260C1613D21606863
:10424000FFF71EFE44496068FDF77EF8606801686C
:1042500041F001010160A88840F00200A88001201F
:10426000DCE72DE9F04116460F460546FFF702FF51
:1042700004464068406808B10020CFE73648A7826E
:1042800005F10C010661416004F114018160002117
:104290008161216801604021C160C901016289100A
:1042A000C1613D216068FFF7EBFD2B496068FDF7B8
:1042B0004BF86068016841F001010160A88840F096
:1042C0000200A8800120A9E710B50446FFF7D2FE3E
:1042D000C168496841B94068406828B920898007A9
:1042E00002D02089000601D5012010BD002010BD9C
:1042F00010B5FFF7BFFE406810BD10B5FFF7BAFE5E
:10430000C06810BD10B5FFF7B5FE04464068FFF762
:10431000EDFDE068BDE81040FFF7E8BD10B5FFF720
:10432000A9FE04464068FFF710FEE068BDE81040B3
:10433000FFF70BBE00300140440000200038004071
:10434000003C004000340140005001400054014056
:104350001064024030380240540300207FB5044608
:104360000D466846FCF740F94FF6FF70A860B4F1BF
:10437000804F02D0AC498C4205D1039828604FF0A1
:10438000FF30686028E0A9498C420BD0A8498C42D4
:1043900008D0A8498C4205D0A7498C4202D0A74931
:1043A0008C4201D1019915E0A5498C4211D0A54953
:1043B0008C420ED0A4498C420BD0A4498C4208D028
:1043C000A3498C4205D0A3498C4202D0A2498C4219
:1043D00005D10399C5E90010002004B070BD02208A
:1043E000FBE72DE9F04704462DED028BB0EE408A45
:1043F000F0EE608A0025006802F04FFA53EC182BAB
:1044000002F072FA07D22561E56003206561BDEC18
:10441000028BBDE8F0879FED910B51EC180B53EC2C
:10442000102B02F061FA03D12561E560656124E09B
:104430006068B0F5803F01D2401C60602561D4E91E
:1044400001862768A946761C6D1CB7FBF5F002F0C3
:1044500024FA53EC182B02F0B1F902F02BFAC4E95C
:104460000305404501D9B542EED9B54207D9C4F894
:104470001090C4F80C90C4F814900420C7E751ECD5
:10448000180B02F017FA60610020C0E76749754A0F
:10449000884203D1116841F0010111607149091F7F
:1044A000B0F1804F55D0664B984203D10B6843F072
:1044B00002030B60634B984203D10B6843F0040383
:1044C0000B60594B984203D10B6843F008030B6013
:1044D0005D4B984203D10B6843F010030B605B4BBC
:1044E000984203D10B6843F020030B60504B984275
:1044F00003D1136843F0020313604E4B984203D17B
:10450000136843F4803313604B4B984203D1136814
:1045100043F400331360494B984203D1136843F4CA
:10452000802313604A4A904203D10A6842F0400255
:104530000A60484A904203D10A6842F080020A6049
:10454000454A904203D1086840F48070086000201A
:104550007047086840F00100F8E73449414A884252
:1045600003D1116821F0010111603E49091FB0F12A
:10457000804F55D0324B984203D10B6823F0020391
:104580000B60304B984203D10B6823F004030B609F
:10459000254B984203D10B6823F008030B602A4B8C
:1045A000984203D10B6823F010030B60274B98420D
:1045B00003D10B6823F020030B601D4B984203D1FD
:1045C000136823F0020313601A4B984203D1136857
:1045D00023F480331360184B984203D1136823F4FB
:1045E00000331360154B984203D1136823F48023E2
:1045F0001360174A904203D10A6822F040020A6011
:10460000144A904203D10A6822F080020A60124ADA
:10461000904203D1086820F4807008600020704741
:10462000086820F00100F8E7000C0040000001409D
:1046300000040140004001400044014000480140A6
:10464000000400400008004000100040001400403A
:1046500000180040001C0040002000400000000046
:1046600000000000443802407047FEE7FEE7FEE726
:10467000FEE77047704700001CB500215B4A0091BF
:104680000191106840F4803010604FF4A04310682E
:1046900000F4003001900098401C0090019810B97F
:1046A00000989842F3D11068800342D50120019010
:1046B0004E484030016841F0805101604C49086823
:1046C00040F44040086049480830036803600368CC
:1046D00043F400430360036843F4A0530360041FE2
:1046E000444B2360136843F08073136013689B018D
:1046F000FCD50A6842F480320A604A68D203FCD5CD
:104700000A6842F400320A604A689203FCD53A4AC9
:1047100040F205711160016821F003010160016838
:1047200041F0020101600168C1F381010229FAD15F
:104730001CBD01911CBD314810B5016841F47001E8
:1047400001602A48016841F001010160274A002107
:104750000832116002682A4B1A400260031D294A80
:104760001A60026822F48022026020480C30016046
:10477000FFF782FF21494FF000608039086010BDCB
:1047800070B51A4D083528681F4B204910F00C00F1
:1047900004D05E10042803D0082803D00B601BE06F
:1047A0000E6019E0114A121D1068C0F380541068A1
:1047B00000F03F0014B1B6FBF0F001E0B3FBF0F005
:1047C00013681268C3F388135843C2F30142521CA2
:1047D0005200B0FBF2F0086028680C4AC0F30310E6
:1047E000121D105C0A68C2400A6070BD00380240A9
:1047F0000070004008544007003C024088ED00E093
:10480000FFFFF6FE103000240024F400D400002046
:1048100086B00024FFF78FFFFDF77EFCFDF78CFCD0
:10482000FDF7FAFBFEF74AF802A8FEF73BF9FFF79F
:104830006FF84FF6E4373846FEF71FFF0120FFF709
:10484000C3F8FEF7C6F91E4D4FF40056022809D0F2
:104850000020CDE9007014211A4B1BA20846FFF777
:1048600026F9FEE7DFF870904FF0290809F10207FA
:10487000FEF731F8012808D03E802869C00700D033
:1048800034B12869C00707D00FE0A9F80060F4E749
:1048900001248DF8108005E0012C06D1002402A827
:1048A000FEF700F902A8FEF70FF900F017F801284B
:1048B000DED1684600F08BF86846FEF719F8D7E7B6
:1048C000000002403C00002053544D504538313127
:1048D000204572726F720000181802402DE9F047EF
:1048E0008AB000243E48FDF7F9FF3D48C01DFEF7A1
:1048F00067FA3B4E4FF6E438751E06F10F0A0027A3
:1049000080B138A102A802F0D9F8CDE900783C4B7B
:1049100002AA50211420FFF7CAF89AF804000028D0
:1049200047D050E0DFF8B89036A109F1070902A896
:10493000B9F80230B9F8002002F0C0F8CDE90078EB
:104940002F4B02AA50211420FFF7B1F8287820B18C
:10495000012806D0022827D103E0012028703070FA
:1049600021E02A69A96890B28BB24FEA1242C01ABC
:10497000A2EB114100D54042002900DA4942084427
:1049800080B2022810D9022028709AF8002099F8E5
:104990000030D21A5200F2709AF8021099F8020010
:1049A000081A400030710124A8682861E86868612D
:1049B00009E02878012801D137700124A86828610E
:1049C000E86868612F700AB02046BDE8F0870449A6
:1049D000491E51F8012F02608988818070470000CC
:1049E000E90000204E6F7420507265737365640A8D
:1049F0000A202020202020200A2020202020200003
:104A00003C00002050726573736564202020200AEA
:104A10000A583A20253033640A593A202530336445
:104A200000000000F0B585B001210220FBF771FE07
:104A30004FF44040032600908DF8056002206A4F35
:104A40008DF8040069463846FBF7A6FF0C220E21BC
:104A50003846FCF715F80C220F213846FCF710F801
:104A60008DF8056000254FF400508DF804500124A6
:104A700000908DF806408DF8075069463846FBF7E0
:104A80008BFF20038DF8064000908DF807408DF8CD
:104A9000056069465548FBF77FFF0C2211463846F2
:104AA000FBF7EEFF01214807FBF733FE0121080762
:104AB000FBF77FFE26053046FCF76FF88DF80C50AB
:104AC00008208DF80D0002968DF80E4002A8FCF724
:104AD0000BF83046FCF761F84C208DF810008DF88B
:104AE000114004208DF812008DF8134004A8FBF744
:104AF00052FC3046FCF751F805B0F0BD38B54FF424
:104B0000C0652846FBF742FC4D208DF800000124CB
:104B10008DF8014003208DF802008DF803406846AF
:104B2000FBF739FC2846FBF731FC4A208DF80000E2
:104B30008DF8014002208DF802008DF80340684690
:104B4000FBF729FC2846FBF721FC4B208DF80000E1
:104B50008DF801408DF802408DF803406846FBF760
:104B60001AFC38BDC0EB00100021C0000722B0FBCA
:104B7000F2F0491C8142FCD970474FF47A714843E6
:104B8000F0E71B4810B5807AF0B11A48016821F0AF
:104B9000060101600120FBF773FC3120FBF776FC76
:104BA0000028FAD00120FBF7C8FC3920FBF76EFC87
:104BB0000028FAD00220FBF7F0FCFBF7F6FC0828EF
:104BC000FBD10B4800F04EFCBDE810404FF48010C4
:104BD000FBF7E3BF064800F00CBF054800F06CBED1
:104BE000034800F00BBE0000000402400000024039
:104BF000D003002010ED00E0F8B50026044637464B
:104C00000096F94D0320FFF7ADFFE06800690090C2
:104C10007F1CAF4201D90020F8BD00980028F1DACE
:104C20000098002140F0010000900098E2681061B7
:104C3000E06802690092491CA94202D8009AD20792
:104C4000F7D10320FFF78EFF3046F8BD30B505469B
:104C50000020EC78002C0CD105EB8202DB1C9B08B9
:104C6000D2F8D02003E051F8045B1560641C9C422C
:104C7000F9D330BD10B504460023D21C9008D4F8F7
:104C8000D02003E0146841F8044B5B1C8342F9D345
:104C9000084610BD70B50022C27001238370402603
:104CA0008680022615461446012901D059B116E026
:104CB000C3720821017004214FF0A0424170911588
:104CC000C18006720BE0C4720C2101700621417094
:104CD0004FF4A061C1800672C44AC370837202F5AA
:104CE0000061C0E9032100210AE002EB411303F552
:104CF000106600EB810403F53063A661491C63650F
:104D000043788B42F1D802F5806141614031C0F8AF
:104D1000CC10002108E002EB411300EB810403F505
:104D2000A063491CC4F8903003788B42F3D800216B
:104D300008E002EB013300EB810403F58053491CCA
:104D4000C4F8D03003788B42F3D802F56062C0F823
:104D50000C21284670BD70B50446017A0025C06854
:104D6000012915D0C16841F04001C1602046FFF71C
:104D700043FF617A4FF4502009B14FF4E810E16825
:104D800088631420FFF7F9FEE078012819D020E0AD
:104D9000816B627A21F480310AB141F48011816320
:104DA000E068C16821F0401121F42021C160204653
:104DB000FFF722FFE07801280BD1E1682A20886004
:104DC000E2E7E068816821F01E010A3141F020012C
:104DD0008160284670BDC0680022816841F00101F1
:104DE000816010467047C0680022816821F001018F
:104DF00081601046704738B500240346224600946F
:104E0000009840F020000090009861F38A10009014
:104E10000098D96808617448D9680B690093521CDE
:104E2000824202D8009B9B06F7D40320FFF79AFE2C
:104E3000204638BD38B5002402462146009400982B
:104E400040F0100000900098D36818616648D2685E
:104E500013690093491C814202D8009BDB06F7D4FA
:104E60000320FFF77FFE204638BD10B5C36800243D
:104E7000D868012920F0C04201D019B104E042F005
:104E8000005201E042F08042DA603220FFF775FE06
:104E9000204610BDC068406900F001007047C0683E
:104EA000406910F0010F01D00020704701207047C9
:104EB000C068406910F0010000D001207047C06850
:104EC0004169806908407047C06840687047006960
:104ED000026861F301020260704730B5C3680022C6
:104EE00011469A61C4686FF080436361C568541EBF
:104EF0006C60C4686361C4683D4BA361C37803B947
:104F0000102141F48721C06841F0081141F440119B
:104F100041F08041836941F004018B430B4383617D
:104F2000104630BD2DE9F04104460027D0F80C01B1
:104F30003E463546334607602069016821F4C0517A
:104F40000160E07AD0BB207A012853D001212046AD
:104F5000FFF7BDFFE1684FF400704862802161F304
:104F60001F4360F30F03E068836203EB134060F3B9
:104F70000F054FF4BA7060F31F45E068C0F80451A4
:104F800005EB154060F30F05E06866F31F45C0F8B8
:104F9000085105EB154060F30F05E068C0F80C51AF
:104FA00005EB154060F30F05E068C0F8105105EB04
:104FB000154060F30F05E068C0F814511021204639
:104FC000FFF719FF2046FFF735FF206906612069CA
:104FD000466121694FF0FF3088612069C661002079
:104FE0004FF09043FF2519E0400D030000000440FE
:104FF000000800800021AAE704EB8002D2F818C064
:10500000DCF80010002901DA194600E03146CCF83E
:10501000001091690E6191698D60401C6178814238
:10502000EAD8002011E004EB8002D2F854C0DCF88A
:105030000010002901DA194600E03146CCF80010D2
:10504000516D0E61516D8D60401C61788142EAD8CE
:105050002069016941F480710161E078012809D17A
:105060000320402161F38A0040F4803061F359400D
:10507000216908632046FFF730FF3846BDE8F0811C
:105080000146002009698968C1F3410139B101294C
:1050900003D0022905D0032900D102207047032044
:1050A00070470120704710B5016900248968836941
:1050B0001A68C1F3410129B1012903D0022904D0A2
:1050C000032905D16FF30A0202E06FF30A02D21C32
:1050D0001A600069416841F480714160204610BD4A
:1050E000F0B50D7800264F780124AC40324600EB35
:1050F0008503012F17D05B6D64F31F421C682504E4
:105100000DD40D8965F30A04CD7865F393448D7948
:1051100065F3995444F0805444F400441C600978C9
:10512000012904D005E09B6964F30F02E6E7C17A28
:1051300029B10069C1691143C1613046F0BD006900
:10514000C16B1143C163F8E7F0B50D78002691F803
:1051500001C001233746AB403A4600EB8504BCF161
:10516000010F07D0646D63F31F422760097801299E
:1051700004D005E0A46963F30F02F6E7C17A29B110
:105180000069C1699143C1613046F0BD0069C16BDE
:105190009143C163F8E7F0B54B780A780024012504
:1051A000D1F814C000EB8202012B17D0566D326883
:1051B0003369BCF1000F64D08D680CEB05077F1ECE
:1051C000B7FBF5F767F3DC43C3F3C9476F4367F3F6
:1051D00012033361C378012B59D05EE097693A68B6
:1051E0003E69BCF1000F0DD08B686CF312069C4435
:1051F000ACF1010CBCFBF3F363F3DC46CB78012B81
:1052000005D008E06FF3120665F3DC4603E026F0F4
:10521000C04606F100563E61C378012B0ED0CB7814
:10522000012B12D04B69BBB10B789D4003695E6BBB
:105230002E435E63CB78012B07D00DE00D780B6910
:1052400000EB8505AD696B61F4E703699B681B0A98
:10525000DB070CD042F080520B7842F0044200EBA6
:1052600083039B691A60CA78012A03D026E042F0C2
:105270000052F1E78A8A93B20A78C968FFF7E6FC20
:105280001CE08F6867F3120365F3DC43A1E70D7838
:105290000B6900EB85056D6D6B61CB78012B06D139
:1052A0004B7913B142F0005201E042F0805209788C
:1052B00042F0044200EB8100406D02602046F0BDE8
:1052C000F0B54B7800254A69012B14D00B7800EB20
:1052D0008304636D1E681B69E2B38A684A6162F3E6
:1052E000060323F4C012636D02F500221A61C2782E
:1052F000012A32D037E083691F681C6932B18E6899
:10530000B24208D966F306044E6106E024F07F023B
:1053100022F4C01203E062F3060424F4C01202F582
:1053200000221A61C278012A05D10C780A6900EBC3
:105330008404A469626147F004421A60C278CAB961
:105340004A69BAB10A78006901219140426B0A4367
:1053500042630FE0FFE70A7AC1E70B780A6900EBC6
:1053600083035B6D5A61097846F0044200EB8100CB
:10537000406D02602846F0BD02464B780978002057
:1053800002EB8101012B05D0496D0A6842F400123D
:105390000A6070478A691168002901DA41F080418A
:1053A00041F400111160704710B503464C780A783B
:1053B000002003EB8202012C09D0526D1368C978DA
:1053C00023F40013032904D0022902D003E09269D8
:1053D000F4E743F08053136010BD00698169C06930
:1053E0000840000C704700EB8101496D8968006935
:1053F00040690840704700698169C069084080B20F
:105400007047426D5C491161C178012908D1426D34
:1054100000F2CC515161406D01684FF08021016074
:10542000704710B50446D0F81801002819D020693B
:105430008068C00715D0A07A30B1D4F80C01D4F838
:105440000C1120F0030008602069416841F001015F
:1054500041600520FFF791FB2069416821F00101BF
:10546000416010BD817A00290AD001698968C907A5
:1054700006D0D0F80C11D0F80C0121F00301016026
:10548000704710B50446012084F812010020FF2265
:1054900006E004EB80018B699A60496D8A60401CCC
:1054A00061788142F5D8216900200861216948614D
:1054B0002169C8612169401E88612046FFF7BAFC56
:1054C0002046BDE81040102195E44A780978012A69
:1054D00000EB810006D0406D006881020ED54FF4CC
:1054E0008050704780690068810201D510207047A4
:1054F000800301D52020704730207047800302D5FB
:105500004FF4005070474FF44050704730B44C781F
:105510000B78002500EB8303012C0BD05C6D236816
:10552000B2F5805F17D0B2F5005F17D0B2F5405FDB
:105530000CD007E09C692368102A05D0202A0DD0E2
:10554000302A03D092B113E030BC15E79A0208D597
:105550004D7130BC28E743F4001309E043F00063C9
:1055600006E043F0806040F0802301E023F4004334
:10557000236030BC70470000180008C070B50446B6
:10558000FFF788FB0120002384F8120184F814310E
:105590001A46402510E002EB820104EBC10181F8BC
:1055A0001D0181F81C21A1F8222181F81F31C1E9D8
:1055B0004953521CC1F8303161789142EBD8002038
:1055C00010E000EB800104EBC10181F8753381F834
:1055D0007403A1F87A0381F87733C1E9DF53401CE3
:1055E000C1F8883361788142EBD82046FFF7FBFB96
:1055F0002046FFF7B0FB00212046FFF736FC20468F
:10560000FFF790FC2046BDE87040FFF7E4BB70B5A3
:105610000D460E0601F07F0404EB840100EBC1018E
:1056200002D501F58E7101E001F55D71ED090C7097
:105630004D708A60CB7000D0CC80022B01D100224B
:105640000A71FFF74DFD002070BD10B50B460C062A
:1056500001F07F0202EB820100EBC10102D501F5EE
:105660008E7101E001F55D710A70DA094A70FFF789
:105670006BFD002010BD10B501F07F0404EB840128
:1056800000EBC101C1F88833C1F880230023C1F8C1
:105690008C3381F8753381F87443C37801F55D71FB
:1056A000012B00D10A6114F0FF0F03D0FFF773FD47
:1056B000002010BDFFF704FEFAE770B511F07F047B
:1056C00004EB840100EBC1014FF0010581F81D518D
:1056D00081F81C41C1F82821C1F82C2101F58E71F7
:1056E0004FF00002C1E9053203D0FFF754FD00205E
:1056F00070BDFFF7E5FDFAE70A4610B5090602F0AE
:105700007F0306D503EB830100EBC10101F58E7128
:1057100005E002EB820100EBC10101F55D7101249E
:105720008C700B70D2094A70FFF726FE002010BD66
:105730000A4610B5090602F07F0306D503EB830184
:1057400000EBC10101F58E7105E002EB820100EB77
:10575000C10101F55D7100248C700B70D2094A7093
:10576000FFF722FE002010BD10B50A0604D501F097
:105770007F01FFF740FB01E0FFF75CFB002010BD5D
:105780000069002261F30A12016811430160704749
:105790000069416821F0020141600320FFF7EDB983
:1057A0000069416841F0020141600320FFF7E5B95B
:1057B0000A0608D501F07F0101EB810100EBC10170
:1057C00001F58E7105E001EB810100EBC10101F5EE
:1057D0005D71FFF77ABE0B0608D501F07F0101EB82
:1057E000810100EBC10101F58E7105E001EB810142
:1057F00000EBC10101F55D71FFF788BE70B504468D
:10580000806D85682169D1F884100D40E90713D0B7
:1058100001258560E078012808D1A06D0069D4F8E1
:10582000A413C0F31200081AC4F8B403FA48012103
:105830000068026820469047A80702D5A16D0220A3
:105840008860012070BD2DE9F0470E4601EB86010E
:1058500000EBC1048146D4E94C01401AD4F824116C
:1058600004F58E74814200D20846C01C870809EBFB
:10587000860812E0451AA068A84200D20546E81C36
:105880008708ABB2F2B24846E168FFF7DFF9E0689B
:105890002844E060A0692844A061D8F81800806915
:1058A00080B2B84205D9D4E90501814201D200286D
:1058B000E0D10120BDE8F08770B505460069416C74
:1058C000426BC2F3400241EAC211EA6994680C409B
:1058D000E1070CD0416B21F002014163E86901242A
:1058E0008460CD4821460068426828469047A0075A
:1058F00002D5E86902248460200702D5E8690824FB
:105900008460E00602D5E86910248460600602D550
:10591000E86940248460200606D501212846FFF767
:1059200092FFE96980208860012070BD2DE9F04177
:1059300006460024FFF75FFD074655E0F80751D003
:105940003069E1B20369426BCA4006EB810102F0A3
:105950000102896943EAC2128D681540E9071AD02D
:105960000125426B05FA04F18A43426306EB840089
:1059700080698560A848E1B2006842683046904777
:10598000F078012807D134B996F81101042802D122
:105990003046FFF736FD280704D506EB84000825BE
:1059A00080698560E80604D506EB840010258069CF
:1059B0008560680604D506EB840040258069856013
:1059C000A80704D506EB84000225806985602806B7
:1059D00008D521463046FFF736FF06EB84018020CC
:1059E000896988607F08641C002FA7D10120BDE869
:1059F000F0812DE9F04706460024FFF750FA002811
:105A00007ED03046FFF75BFA051E7AD0280303D517
:105A1000304600F05FF90446680303D53046FFF7CF
:105A200085FF0443A8074FF0000A02D5F168022061
:105A30004861794F4FF00109002D17DAB07A30B183
:105A4000D6F80C01D6F80C1120F00300086030697C
:105A5000416821F00101416038688169304688471A
:105A6000F1684FF00040486144F00104280503D577
:105A7000304600F0FCF80443280708D53868C168B0
:105A800030468847F1680820486144F00104E80680
:105A900003D5304600F0AAF80443E80403D53046A5
:105AA00000F05FF80443A8041AD53046FFF7FBFA6C
:105AB000F068D0F80C803046FFF7E2FA032846D0B1
:105AC00086F80290402128F47050B18000F5A05073
:105AD000F168C860F1684FF40050486144F0010477
